:030000000206965F
:0C069600787FE4F6D8FD7581450206DD92
:1008F2001008504D322E353A202020202075672FC7
:100902006D3310184C696D69743A202020202075CF
:04091200672F6D33AB
:0908A300E4FD12088A7F0A7E00C0
:1008AC00D3EF9400EE940040167DC8EDD394007401
:0F08BC0080948040031D80F3EF1F70E41E80E1E5
:0108CB00220A
:10087400AE3FAF407C001203797C007D0A120379FD
:06088400ED2430FF7D01B0
:10088A00AC05AB077F057E001208ACD296C295EC88
:09089A0024FF92948B80C2962287
:1008CC00E4FD7F0112088A7FF47E011208AC7F38A8
:1008DC001208A37F061208A3E4FD7F0C12088A7F7E
:0608EC000A7E000208ACC8
:02080900AA0340
:10080B00EF64017006ED2480FF8004ED24C0FFE44B
:10081B00FD12088A8A45E545601EAB42AA43A944EE
:10082B00120360FF7D0112088A74012544F544E42C
:08083B003543F543154580DE4D
:010843002292
:10072200E4FEFDFCC291D29000C29200D29100EF91
:10073200700EC291D29000D29100C291C290800CF0
:10074200C291D29000D29100C291D29000D2910077
:10075200C291D290E4FFEFC3940874809480501544
:1007620000ED25E0FDD29100C291309005430501D4
:1007720080000F80E1E4FFEFC394087480948050FE
:1007820015ECC313FC309005430480800000D29125
:1007920000C2910F80E1EDB50402AE0400D292D204
:0507A20090D291AF06AA
:0107A700222F
:0E093500EF1FAC0670011E4C60030080F32221
:02091700AD072A
:10091900E4FBFA7F14FE120935AF05120722AB0773
:0B0929007F907E011209357E00AF03B5
:0109340022A0
:10041200E4F534F5357536017537F4F538F539F507
:100422003AF53BF53CF53D753E091208CC754200A4
:100432007543007544087B10E4FD7F0112080975BD
:1004420042007543007544187B10E4FD7F021208D8
:1004520009AF37AE3612084B30B14AE4F538F539F8
:10046200F53AF53BF533F532F531F530F52FF52E4A
:10047200F52DF52CF52BF52AF529F528F534F5356A
:10048200AF35AE341207A87536017537F47FF47EA6
:100492000112084BD2A0D2A1D2A2D2937FC87E0071
:1004A2001208AC80B3AB2FAA2EA92DA82CC000C075
:1004B20001C002C0037F01120917AC06AD07E412A6
:1004C20002A6D003D002D001D00012000A8F2F8ED4
:1004D2002E8D2D8C2C0539E53970020538C3941404
:1004E200E5386480948050030205E9E4F538F53973
:1004F200FBFA79A078411202048F2F8E2E8D2D8C5B
:100502002CAF33AE32AD31AC30AB2FAA2EA92DA811
:100512002C12000A8F338E328D318C30E4F52FF598
:100522002EF52DF52C053BE53B7002053AC39405EB
:10053200E53A6480948050030205E9E4F53AF53B1C
:10054200FBFA79A078401202048F2B8E2A8D298C17
:1005520028E4FFFE7D487C42AB2BAA2AA929A828C1
:100562001200FBE4FBFA797F78431202048F2B8E90
:100572002A8D298C28E4FBFA798078401200068FB4
:100582002B8E2A8D298C28E4FBFA79A0784012025E
:10059200048F2B8E2A8D298C28E4FBFA797A7844F1
:1005A2001200FB8F2B8E2A8D298C281202DF8E34AB
:1005B2008F3574EB2535F535E43534F534FEAF353A
:1005C2007C007D091203798E348F351207A8E4F579
:1005D20033F532F531F530F52FF52EF52DF52CF5F5
:1005E2002BF52AF529F528D3E5359537E5366480CC
:1005F200F8E5346480984005753C018005E4F53CDB
:10060200D293053DE53E75F00AA4FFD3E53D9FE593
:10061200F06480F87480984005E53E04F53DE53DC0
:10062200853EF084E5F07006E53C6002B29320B0AE
:10063200117FC87E001208AC74322537F537E412F8
:1006420008442097127FC87E001208AC74CE25376A
:10065200F53774FF120844D3E535942CE5346480F1
:1006620094814004C2A08002D2A0D3E53594F4E57F
:1006720034648094814004C2A18002D2A1D3E535C2
:1006820094BCE534648094824005C2A202045AD22A
:04069200A202045A62
:070844003536F536AF37FE33
:10084B008E3F8F40E4FD7FC712088A7D64120874C7
:10085B007D0A120874AE3FAF407C007D0A1203790B
:09086B00ED2430FF7D0102088A32
:1007A8008E3F8F40E4FD7F8612088AC3E53F648050
:1007B800948050147D017F3012088AAF40AE3F12FA
:1007C80009438E3F8F40800FAE3FAF407C037DE8EA
:1007D800120379EF120885AE3FAF407C007D6412AA
:1007E800087AAE3FAF407C007D0A12087AAE3FAF70
:1007F800407C007D0A120379ED2430FF7D01020858
:010808008A65
:1000030002034BE86480F8E933E83360110460F0DD
:10001300ED33EC337009E8FCE9FDEAFEEBFF220463
:1000230060DED3EB9FEA9EE99DE8C2E78CF0C2F75E
:1000330095F0400CE8CCF8E9CDF9EACEFAEBCFFB2A
:1000430012031685D0F05804700320D5B3E804706A
:10005300075002B2D502035592D5EC0460F7E4CC05
:10006300C0E0C398F8603B94186008400DD0E0FBF3
:1000730002032DE4FBFAC9FC8028E830E406E4C956
:10008300FBE4CAFCE830E305E4C9CACBFCE8540747
:100093006010F8C3E913F9EA13FAEB13FBEC13FC52
:1000A300D8F130F52FC3E49CFCEF9BFFEE9AFEEDF5
:1000B30099FDD0E0FBEF4E4D4C701222DB0302039F
:1000C30052EC2CFCEF33FFEE33FEED33FDED30E766
:1000D300EB02032DEF2BFFEE3AFEED39FDD0E0FBF3
:1000E30050130BBB0003020355ED13FDEE13FEEF9C
:0800F30013FFEC13FC02032DC6
:1000FB00EC4D6011E8497017ED33EC3304600DE4FF
:10010B00FCFFFEFD22E933E8330470F802034B12C7
:10011B00031658046009E4CC2481500628500902C8
:10012B000355284003020352C0E0EB4A7044B980E8
:10013B0006D0E0FB020341EF4E701CBD8008EBFFC5
:10014B00EAFEE9FD80EBE98DF0A4FEE5F00201E4A7
:10015B00E9CDF9EAFEEBFFEF89F0A4FCE5F0CE89DF
:10016B00F0A42EFFE435F0CD89F0A42DFEE435F09C
:10017B008067EF4E7005BD80D780C3EF8BF0A4ACCA
:10018B00F0EE8BF0A42CFCE435F0F8EF8AF0A42C05
:10019B00E5F038FCE433CB8DF0A42CFCE5F03BF818
:1001AB00EE8AF0A42CFCE5F038F8E433CF89F0A408
:1001BB002CFCE5F038CF3400CE89F0A42FFFE5F00E
:1001CB003EFEE433C98DF0A42EFEE5F039CD8AF066
:1001DB00A42FFFE5F03EFEE43DFD33D0E0FB5007DE
:1001EB000BBB000F020355EC2CFCEF33FFEE33FE81
:0601FB00ED33FD02032DAF
:10020100020355EC5D046005E85904700302034BD9
:10021100120316580460F6EC4860F2EC7004FDFE1F
:10022100FF22C860DB2481C85009C39860025006D0
:100231000203529850CAF582E9294B4A7005AB82F4
:1002410002034175F0007C1A7880C3EF9BEE9AEDB2
:1002510099400DC3EF9BFFEE9AFEED99FDE842F048
:10026100DC23ACF0D0E0FFD0E0FED0E0FDAB82209B
:10027100E7101BEB60BAEC2CFCEF33FFEE33FEED25
:1002810033FD02032DE803F830E705C0F075F000F7
:10029100EF2FFFEE33FEED33FD40B830E7C280AA09
:1002A10075F020800E75F010800575F0087D007ED8
:1002B100007F003392D530D5031203AFEC334010E9
:1002C100EF33FFEE33FEED33FDEC33FCD5F0ED22E1
:0E02D100E5F0247EA2D513CC92E7CDCEFF221D
:1002DF00EDD2E7CD33EC3392D524814006E4FFFE17
:1002EF00FDFC22FCE4CFCECDCC24E0501174FF8076
:1002FF00EDC3CC13CCCD13CDCE13CECF13CF047013
:07030F00F030D5DE0203AF60
:10031600E9D2E7C933E833F892D5EDD2E7CD33EC2D
:0703260033FC5002B2D522A6
:10032D00EC30E7100FBF000C0EBE00080DBD000431
:10033D000BEB6014A2D5EB13FCED92E7FD2274FFDD
:10034D00FCFDFEFF22E480F8A2D574FF13FC7D8036
:03035D00E480EF4A
:1006A200020412E493A3F8E493A34003F68001F258
:1006B20008DFF48029E493A3F85407240CC8C33359
:1006C200C4540F4420C8834004F456800146F6DF28
:1006D200E4800B01020408102040809008F2E47EBE
:1006E200019360BCA3FF543F30E509541FFEE4931D
:1006F200A360010ECF54C025E060A840B8E493A3E4
:10070200FAE493A3F8E493A3C8C582C8CAC583CA0E
:10071200F0A3C8C582C8CAC583CADFE9DEE780BEC6
:0109160000E0
:10036000BB010689828A83E0225002E722BBFE029B
:09037000E32289828A83E49322CE
:10037900C2D5EC30E709B2D5E4C39DFDE49CFCEE9F
:1003890030E715B2D5E4C39FFFE49EFE1203BDC357
:10039900E49DFDE49CFC80031203BD30D507C3E452
:0603A9009FFFE49EFE220E
:0E03AF00C3E49FFFE49EFEE49DFDE49CFC225F
:0C094300EE30E707C3E49FFFE49EFE22B5
:1003BD00BC000BBE0029EF8DF084FFADF022E4CC24
:1003CD00F875F008EF2FFFEE33FEEC33FCEE9DECED
:1003DD00984005FCEE9DFE0FD5F0E9E4CEFD22ED33
:1003ED00F8F5F0EE8420D21CFEADF075F008EF2F7D
:1003FD00FFED33FD4007985006D5F0F222C398FD6E
:05040D000FD5F0EA220A
:00000001FF
